:100000000C9446000C9465000C9465000C946500FB
:100010000C9465000C9465000C9465000C946500CC
:100020000C9465000C9465000C9465000C946500BC
:100030000C9465000C940C010C9465000C94650004
:100040000C9465000C9465000C9465000C9465009C
:100050000C9465000C9465000C9465000C9465008C
:100060000C9465000C9465000C9465000C9465007C
:100070000C9465000C9465000C9465000C9465006C
:100080000C9465000C9465000C94650011241FBE4F
:10009000CFEFD0E4DEBFCDBF11E0A0E0B1E0EEEAEB
:1000A000F7E000E00BBF02C007900D92A231B1074C
:1000B000D9F721E0A2E1B1E001C01D92A732B20759
:1000C000E1F70E9499020C94D5030C940000CF93A1
:1000D000DF9300D01F92CDB7DEB789837B836A831D
:1000E00089818A3031F48A819B81BC018DE00E9434
:1000F000670080EC90E0FC018081882F90E08072A6
:100100009927892BB1F386EC90E02981FC012083AB
:1001100080E090E00F900F900F90DF91CF910895C5
:10012000CF93DF9300D000D0CDB7DEB769837A8359
:100130008B839C8389819A81AB81BC8180930E01E2
:1001400090930F01A0931001B093110180910E01C3
:1001500090910F01A0911001B091110180931301B2
:1001600090931401A0931501B093160100000F9015
:100170000F900F900F90DF91CF910895CF93DF9361
:10018000CDB7DEB781E890E02BE0FC01208388E862
:1001900090E02DE730E0FC01318320838FE690E092
:1001A00022E0FC01208384E890E0FC0111821082AF
:1001B00080910E0190910F01A0911001B091110159
:1001C0008093130190931401A0931501B09316012D
:1001D0008FE590E02FE530E0F90120812068FC01F7
:1001E00020830000DF91CF910895CF93DF93CDB7A7
:1001F000DEB781E890E0FC0110820000DF91CF9132
:100200000895CF93DF93CDB7DEB781E080931201DD
:100210000000DF91CF9108951F920F9200905F0030
:100220000F92112400905B000F922F933F934F93F6
:100230005F936F937F938F939F93AF93BF93EF934E
:10024000FF93CF93DF93CDB7DEB7809113019091E9
:100250001401A0911501B09116010197A109B109EE
:100260008093130190931401A0931501B09316018C
:100270008091130190911401A0911501B091160184
:10028000892B8A2B8B2B91F40E94010180910E0106
:1002900090910F01A0911001B09111018093130171
:1002A00090931401A0931501B09316010000DF9103
:1002B000CF91FF91EF91BF91AF919F918F917F91DE
:1002C0006F915F914F913F912F910F9000925B0042
:1002D0000F9000925F000F901F901895CF93DF93BF
:1002E000CDB7DEB72C970FB6F894DEBF0FBECDBFEB
:1002F0006D837E838F83988729873A874B875C87B6
:100300008D819E81AF81B88529853A854B855C8535
:10031000BC01CD010E94B303DC01CB0189839A8328
:10032000AB83BC8389819A81AB81BC81892B8A2B69
:100330008B2B29F489859A85AB85BC8511C089856D
:100340009A85AB85BC858D839E83AF83B887898171
:100350009A81AB81BC8189879A87AB87BC87D0CFD4
:10036000BC01CD012C960FB6F894DEBF0FBECDBFF9
:10037000DF91CF910895CF93DF9300D01F92CDB737
:10038000DEB78B831A82198227C088E290E028E0CA
:10039000FC01208388E290E028E230E0F90120812E
:1003A000422F2B81222F30E0098002C035952795FE
:1003B0000A94E2F72170242BFC01208388E290E06C
:1003C00028E230E0F90120812260FC01208389814C
:1003D0009A8101969A83898389819A810897ACF2E0
:1003E00088E290E028E230E0F90120812460FC01FD
:1003F000208388E290E0FC01108200000F900F90B3
:100400000F90DF91CF910895CF93DF9300D0CDB7B8
:10041000DEB79A83898389819A818230910509F4B4
:1004200048C0833091052CF4009759F0019779F179
:1004300075C08330910509F44EC0049709F456C085
:100440006DC0809117010E94BB0180912301882318
:1004500029F082E090E09A83898364C0809126012C
:10046000882329F081E090E09A8389835BC08091A2
:100470002301882349F080912601882329F083E015
:1004800090E09A8389834EC01A8219824BC0809172
:1004900017018F3F29F0809117018F5F809317011B
:1004A000809117010E94BB0184E090E09A838983C8
:1004B00039C080911701882329F08091170181505C
:1004C00080931701809117010E94BB0184E090E0A6
:1004D0009A83898327C010921701809117010E9487
:1004E000BB0184E090E09A8389831CC08091230142
:1004F000882339F480912601882319F41A821982FD
:1005000010C080912301882361F080912601882307
:1005100041F083E090E09A83898303C01A821982B4
:1005200001C0000089819A810F900F90DF91CF91D7
:1005300008950F931F93CF93DF93CDB7DEB727971F
:100540000FB6F894DEBF0FBECDBF87E290E02FEF6D
:10055000FC01208388E290E0FC01108281E290E0BF
:10056000FC01108280E290E02FEFFC01208388E103
:1005700091E09F838E8381E090E09C838B838FEF5B
:100580008D838D818093180184E690E0A0E0B0E037
:100590008093190190931A01A0931B01B0931C0141
:1005A0008091190190911A01A0911B01B0911C0139
:1005B00080931D0190931E01A0931F01B093200111
:1005C00084E092E0909322018093210162E370E045
:1005D00080E090E00E9490000E94BE0080E290E0E7
:1005E000FC018081882F90E08170992721E0892B80
:1005F00009F020E0822F8093230180E290E0FC014B
:10060000808180958270809326011A8219829BC016
:1006100089819A81880F991F9E012F5F3F4F820F1A
:10062000931F0596FC0180819181FC012581368113
:100630004781508589819A81880F991FBE016F5F1C
:100640007F4F860F971F0596FC0180819181FC01E9
:1006500081819281A381B481281739074A075B07FA
:1006600009F045C089819A81880F991F9E012F5FEB
:100670003F4F820F931F0596FC01008111818981F4
:100680009A81880F991F9E012F5F3F4F820F931F02
:100690000596FC0180819181FC012185328589814B
:1006A0009A81880F991FAE014F5F5F4F840F951F8E
:1006B0000596FC0180819181FC018081082E000C4F
:1006C000990BF9010995F801808389819A81880F36
:1006D000991F9E012F5F3F4F820F931F0596FC01CC
:1006E00080819181FC011582168217821086898192
:1006F0009A81880F991F9E012F5F3F4F820F931F92
:100700000596FC012081318189819A81880F991F8A
:10071000AE014F5F5F4F840F951F0596FC018081EE
:100720009181FC0185819681A781B085C296A11D2A
:10073000B11DF90185839683A783B08789819A814A
:1007400001969A83898329813A818B819C8128171C
:10075000390708F45DCF0000809112018823E1F38E
:10076000109212013BCFA1E21A2EAA1BBB1BFD0166
:100770000DC0AA1FBB1FEE1FFF1FA217B307E40780
:10078000F50720F0A21BB30BE40BF50B661F771FD8
:10079000881F991F1A9469F76095709580959095B8
:0E07A0009B01AC01BD01CF010895F894FFCF7D
:1007AE0000000002000000006700000000000100D1
:0207BE00000039
:00000001FF
