:100000000C9446000C9465000C9465000C946500FB
:100010000C9465000C9465000C9465000C946500CC
:100020000C9465000C9465000C9465000C946500BC
:100030000C9465000C940C010C9465000C94650004
:100040000C9465000C9465000C9465000C9465009C
:100050000C9465000C9465000C9465000C9465008C
:100060000C9465000C9465000C9465000C9465007C
:100070000C9465000C9465000C9465000C9465006C
:100080000C9465000C9465000C94650011241FBE4F
:10009000CFEFD0E4DEBFCDBF11E0A0E0B1E0E2EEF3
:1000A000F7E000E00BBF02C007900D92A431B1074A
:1000B000D9F721E0A4E1B1E001C01D92AB32B20753
:1000C000E1F70E94B3020C94EF030C940000CF936D
:1000D000DF9300D01F92CDB7DEB789837B836A831D
:1000E00089818A3031F48A819B81BC018DE00E9434
:1000F000670080EC90E0FC018081882F90E08072A6
:100100009927892BB1F386EC90E02981FC012083AB
:1001100080E090E00F900F900F90DF91CF910895C5
:10012000CF93DF9300D000D0CDB7DEB769837A8359
:100130008B839C8389819A81AB81BC8180930E01E2
:1001400090930F01A0931001B093110180910E01C3
:1001500090910F01A0911001B091110180931501B0
:1001600090931601A0931701B093180100000F900F
:100170000F900F900F90DF91CF910895CF93DF9361
:10018000CDB7DEB781E890E02BE0FC01208388E862
:1001900090E02DE730E0FC01318320838FE690E092
:1001A00022E0FC01208384E890E0FC0111821082AF
:1001B00080910E0190910F01A0911001B091110159
:1001C0008093150190931601A0931701B093180125
:1001D0008FE590E02FE530E0F90120812068FC01F7
:1001E00020830000DF91CF910895CF93DF93CDB7A7
:1001F000DEB781E890E0FC0110820000DF91CF9132
:100200000895CF93DF93CDB7DEB781E080931401DB
:100210000000DF91CF9108951F920F9200905F0030
:100220000F92112400905B000F922F933F934F93F6
:100230005F936F937F938F939F93AF93BF93EF934E
:10024000FF93CF93DF93CDB7DEB7809115019091E7
:100250001601A0911701B09118010197A109B109E8
:100260008093150190931601A0931701B093180184
:100270008091150190911601A0911701B09118017C
:10028000892B8A2B8B2B91F40E94010180910E0106
:1002900090910F01A0911001B0911101809315016F
:1002A00090931601A0931701B09318010000DF91FD
:1002B000CF91FF91EF91BF91AF919F918F917F91DE
:1002C0006F915F914F913F912F910F9000925B0042
:1002D0000F9000925F000F901F901895CF93DF93BF
:1002E000CDB7DEB72C970FB6F894DEBF0FBECDBFEB
:1002F0006D837E838F83988729873A874B875C87B6
:100300008D819E81AF81B88529853A854B855C8535
:10031000BC01CD010E94CD03DC01CB0189839A830E
:10032000AB83BC8389819A81AB81BC81892B8A2B69
:100330008B2B29F489859A85AB85BC8511C089856D
:100340009A85AB85BC858D839E83AF83B887898171
:100350009A81AB81BC8189879A87AB87BC87D0CFD4
:10036000BC01CD012C960FB6F894DEBF0FBECDBFF9
:10037000DF91CF910895CF93DF9300D01F92CDB737
:10038000DEB78B831A82198227C088E290E028E0CA
:10039000FC01208388E290E028E230E0F90120812E
:1003A000422F2B81222F30E0098002C035952795FE
:1003B0000A94E2F72170242BFC01208388E290E06C
:1003C00028E230E0F90120812260FC01208389814C
:1003D0009A8101969A83898389819A810897ACF2E0
:1003E00088E290E028E230E0F90120812460FC01FD
:1003F000208388E290E0FC01108200000F900F90B3
:100400000F90DF91CF910895CF93DF9300D0CDB7B8
:10041000DEB79A83898389819A818230910509F4B4
:1004200044C0833091052CF4009759F0019759F19D
:1004300090C08330910509F44AC0049709F469C05B
:1004400088C080912701882329F082E090E09A8378
:10045000898382C080912A01882329F081E090E07D
:100460009A83898379C080912701882349F08091FC
:100470002A01882329F083E090E09A8389836CC065
:100480001A82198269C080911201833021F481E0BF
:100490008093120105C0809112018F5F8093120139
:1004A00084E090E09A83898357C080911201813063
:1004B00021F483E08093120105C0809112018150E4
:1004C0008093120184E090E09A83898345C08091F3
:1004D0001901882329F084E090E09A8389833CC045
:1004E00080911A01882339F481E080931A0181E018
:1004F0008093120106C080911A01813011F410928C
:100500001A0181E08093190184E090E09A83898345
:1005100023C080912701882349F480912A018823F0
:1005200029F41A8219821092190112C080912701B0
:10053000882349F080912A01882329F083E090E004
:100540009A83898305C084E090E09A83898304C0FC
:1005500003C01A821982000089819A810F900F903E
:10056000DF91CF9108950F931F93CF93DF93CDB772
:10057000DEB727970FB6F894DEBF0FBECDBF87E278
:1005800090E02FEFFC01208388E290E0FC011082D4
:1005900081E290E0FC01108280E290E02FEFFC010C
:1005A00020838CE191E09F838E8381E090E09C83A7
:1005B0008B838FEF8D838D8180931C0182E390E08C
:1005C000A0E0B0E080931D0190931E01A0931F0155
:1005D000B093200180911D0190911E01A0911F01F7
:1005E000B09120018093210190932201A0932301D7
:1005F000B093240184E092E090932601809325013A
:1006000062E370E080E090E00E9490000E94BE00F3
:1006100080E290E0FC018081882F90E08170992732
:1006200021E0892B09F020E0822F8093270180E2CE
:1006300090E0FC0180818095827080932A011A826B
:1006400019829BC089819A81880F991F9E012F5F13
:100650003F4F820F931F0596FC0180819181FC0121
:10066000258136814781508589819A81880F991F1C
:10067000BE016F5F7F4F860F971F0596FC0180813B
:100680009181FC0181819281A381B481281739076E
:100690004A075B0709F045C089819A81880F991F35
:1006A0009E012F5F3F4F820F931F0596FC01008133
:1006B000118189819A81880F991F9E012F5F3F4F79
:1006C000820F931F0596FC0180819181FC01218599
:1006D000328589819A81880F991FAE014F5F5F4FE4
:1006E000840F951F0596FC0180819181FC0180811A
:1006F000082E000C990BF9010995F8018083898176
:100700009A81880F991F9E012F5F3F4F820F931F81
:100710000596FC0180819181FC0115821682178269
:10072000108689819A81880F991F9E012F5F3F4F04
:10073000820F931F0596FC012081318189819A8166
:10074000880F991FAE014F5F5F4F840F951F05966D
:10075000FC0180819181FC0185819681A781B08512
:10076000C296A11DB11DF90185839683A783B08729
:1007700089819A8101969A83898329813A818B8123
:100780009C812817390708F45DCF0000809114017F
:100790008823E1F3109214013BCFA1E21A2EAA1B89
:1007A000BB1BFD010DC0AA1FBB1FEE1FFF1FA21721
:1007B000B307E407F50720F0A21BB30BE40BF50B1E
:1007C000661F771F881F991F1A9469F760957095A7
:1007D000809590959B01AC01BD01CF010895F894DF
:0207E000FFCF49
:1007E200000000020000000067000000000001009D
:0407F2000000010002
:00000001FF
