:100000000C9446000C9465000C9465000C946500FB
:100010000C9465000C9465000C9465000C946500CC
:100020000C9465000C9465000C9465000C946500BC
:100030000C9465000C940C010C9465000C94650004
:100040000C9465000C9465000C9465000C9465009C
:100050000C9465000C9465000C9465000C9465008C
:100060000C9465000C9465000C9465000C9465007C
:100070000C9465000C9465000C9465000C9465006C
:100080000C9465000C9465000C94650011241FBE4F
:10009000CFEFD0E4DEBFCDBF11E0A0E0B1E0E4E5FA
:1000A000FBE000E00BBF02C007900D92AE31B1073C
:1000B000D9F721E0AEE1B1E001C01D92AC36B20744
:1000C000E1F70E94D3030C94A8050C940000CF9391
:1000D000DF9300D01F92CDB7DEB789837B836A831D
:1000E00089818A3031F48A819B81BC018DE00E9434
:1000F000670080EC90E0FC018081882F90E08072A6
:100100009927892BB1F386EC90E02981FC012083AB
:1001100080E090E00F900F900F90DF91CF910895C5
:10012000CF93DF9300D000D0CDB7DEB769837A8359
:100130008B839C8389819A81AB81BC8180930E01E2
:1001400090930F01A0931001B093110180910E01C3
:1001500090910F01A0911001B091110180931F01A6
:1001600090932001A0932101B093220100000F90F1
:100170000F900F900F90DF91CF910895CF93DF9361
:10018000CDB7DEB781E890E02BE0FC01208388E862
:1001900090E02DE730E0FC01318320838FE690E092
:1001A00022E0FC01208384E890E0FC0111821082AF
:1001B00080910E0190910F01A0911001B091110159
:1001C00080931F0190932001A0932101B0932201FD
:1001D0008FE590E02FE530E0F90120812068FC01F7
:1001E00020830000DF91CF910895CF93DF93CDB7A7
:1001F000DEB781E890E0FC0110820000DF91CF9132
:100200000895CF93DF93CDB7DEB781E080931E01D1
:100210000000DF91CF9108951F920F9200905F0030
:100220000F92112400905B000F922F933F934F93F6
:100230005F936F937F938F939F93AF93BF93EF934E
:10024000FF93CF93DF93CDB7DEB780911F019091DD
:100250002001A0912101B09122010197A109B109CA
:1002600080931F0190932001A0932101B09322015C
:1002700080911F0190912001A0912101B091220154
:10028000892B8A2B8B2B91F40E94010180910E0106
:1002900090910F01A0911001B091110180931F0165
:1002A00090932001A0932101B09322010000DF91DF
:1002B000CF91FF91EF91BF91AF919F918F917F91DE
:1002C0006F915F914F913F912F910F9000925B0042
:1002D0000F9000925F000F901F901895CF93DF93BF
:1002E000CDB7DEB72C970FB6F894DEBF0FBECDBFEB
:1002F0006D837E838F83988729873A874B875C87B6
:100300008D819E81AF81B88529853A854B855C8535
:10031000BC01CD010E948605DC01CB0189839A8353
:10032000AB83BC8389819A81AB81BC81892B8A2B69
:100330008B2B29F489859A85AB85BC8511C089856D
:100340009A85AB85BC858D839E83AF83B887898171
:100350009A81AB81BC8189879A87AB87BC87D0CFD4
:10036000BC01CD012C960FB6F894DEBF0FBECDBFF9
:10037000DF91CF910895CF93DF9300D01F92CDB737
:10038000DEB78B831A82198227C088E290E028E0CA
:10039000FC01208388E290E028E230E0F90120812E
:1003A000422F2B81222F30E0098002C035952795FE
:1003B0000A94E2F72170242BFC01208388E290E06C
:1003C00028E230E0F90120812260FC01208389814C
:1003D0009A8101969A83898389819A810897ACF2E0
:1003E00088E290E028E230E0F90120812460FC01FD
:1003F000208388E290E0FC01108200000F900F90B3
:100400000F90DF91CF910895CF93DF9300D0CDB7B8
:10041000DEB79A83898389819A818230910509F4B4
:1004200044C0833091052CF4009759F0019759F19D
:1004300093C08330910509F44AC0049709F46CC055
:100440008BC080916001882329F082E090E09A833C
:10045000898385C080916901882329F081E090E03B
:100460009A8389837CC080916001882349F08091C0
:100470006901882329F083E090E09A8389836FC023
:100480001A8219826CC080911201833021F481E0BC
:100490008093120105C0809112018F5F8093120139
:1004A00084E090E09A8389835AC080911201813060
:1004B00021F483E08093120105C0809112018150E4
:1004C0008093120184E090E09A83898348C08091F0
:1004D0002301882329F084E090E09A8389833FC038
:1004E00080912401882339F481E08093240181E004
:1004F0008093120109C080912401813029F481E0A8
:10050000809312011092240181E08093230184E002
:1005100090E09A83898323C080916001882349F405
:1005200080916901882329F41A821982109223018B
:1005300012C080916001882349F08091690188236D
:1005400029F083E090E09A83898305C084E090E0FD
:100550009A83898304C003C01A82198200008981AA
:100560009A810F900F90DF91CF910895CF93DF93F1
:1005700000D0CDB7DEB79A83898389819A81892B90
:1005800039F580911201813029F01A821982109276
:10059000260121C0809112018130E9F4809124016B
:1005A0008823C9F080912601882339F48FEF809346
:1005B000250181E08093260108C0809126018130C9
:1005C00021F410922501109226011A82198203C08B
:1005D0001A82198201C0000089819A810F900F90C0
:1005E000DF91CF910895CF93DF9300D0CDB7DEB7E1
:1005F0009A83898389819A81892B41F5809112019F
:10060000823029F01A8219821092270122C080912B
:1006100012018230F1F4809124018823D1F080917D
:100620002701882339F48AEA8093250181E08093A9
:10063000270109C080912701813029F485E5809345
:100640002501109227011A82198203C01A82198289
:1006500001C0000089819A810F900F90DF91CF91A6
:100660000895CF93DF9300D0CDB7DEB79A83898307
:1006700089819A81892B09F068C0809112018330A9
:1006800029F01A821982109228015CC0809112010F
:10069000833009F057C080912401882309F452C0A7
:1006A00080912801882341F410922501809128012E
:1006B0008F5F8093280146C080912801813021F00E
:1006C00080912801873081F480912801873019F4C6
:1006D0001092280105C0809128018F5F8093280126
:1006E00081E8809325012EC080912801823021F07D
:1006F00080912801863049F483EC80932501809114
:1007000028018F5F809328011DC0809128018330CC
:1007100021F080912801853049F487EE80932501EE
:10072000809128018F5F809328010CC0809128015F
:10073000843041F48FEF80932501809128018F5FF1
:10074000809328011A82198203C01A82198200003C
:1007500089819A810F900F90DF91CF910895CF9367
:10076000DF9300D0CDB7DEB79A83898389819A81E0
:10077000892B79F480912401882321F480E00E9460
:10078000BB0104C0809125010E94BB011A8219821D
:1007900003C01A821982000089819A810F900F90FC
:1007A000DF91CF9108950F931F93CF93DF93CDB730
:1007B000DEB72F970FB6F894DEBF0FBECDBF87E22E
:1007C00090E02FEFFC01208388E290E0FC01108292
:1007D00081E290E0FC01108280E290E02FEFFC01CA
:1007E00020838AE0E3E1F1E0DE01169601900D92AC
:1007F0008A95E1F785E090E09C838B838FEF8D8372
:100800008D818093290182E390E0A0E0B0E08093A5
:100810002A0190932B01A0932C01B0932D0180917C
:100820002A0190912B01A0912C01B0912D01809370
:100830002E0190932F01A0933001B093310184E0F9
:1008400092E090933301809332018D818093340143
:1008500080E293E0A0E0B0E0809335019093360110
:10086000A0933701B0933801809135019091360102
:10087000A0913701B09138018093390190933A01EA
:10088000A0933B01B0933C0186EB92E090933E0134
:1008900080933D018D8180933F0184EF91E0A0E042
:1008A000B0E08093400190934101A0934201B09346
:1008B00043018091400190914101A0914201B0918A
:1008C00043018093440190934501A0934601B09366
:1008D000470183EF92E090934901809348018D8115
:1008E00080934A0184E690E0A0E0B0E080934B0161
:1008F00090934C01A0934D01B0934E0180914B0118
:1009000090914C01A0914D01B0914E0180934F0107
:1009100090935001A0935101B093520181E393E071
:1009200090935401809353018D818093550181E010
:1009300090E0A0E0B0E08093560190935701A0931F
:100940005801B09359018091560190915701A0919F
:100950005801B091590180935A0190935B01A09383
:100960005C01B0935D018FEA93E090935F01809307
:100970005E0161E070E080E090E00E9490000E94E3
:10098000BE0080E290E0FC018081882F90E08170C1
:10099000992721E0892B09F020E0822F80936001C4
:1009A00080E290E0FC0180818095827080936901F3
:1009B0001A8219829BC089819A81880F991F9E0192
:1009C0002F5F3F4F820F931F0596FC01808191811D
:1009D000FC01258136814781508589819A81880F64
:1009E000991FBE016F5F7F4F860F971F0596FC0111
:1009F00080819181FC0181819281A381B48128173A
:100A000039074A075B0709F045C089819A81880F39
:100A1000991F9E012F5F3F4F820F931F0596FC0188
:100A20000081118189819A81880F991F9E012F5F12
:100A30003F4F820F931F0596FC0180819181FC013D
:100A40002185328589819A81880F991FAE014F5F78
:100A50005F4F840F951F0596FC0180819181FC01F9
:100A60008081082E000C990BF9010995F80180830B
:100A700089819A81880F991F9E012F5F3F4F820FB6
:100A8000931F0596FC0180819181FC0115821682DD
:100A90001782108689819A81880F991F9E012F5F86
:100AA0003F4F820F931F0596FC0120813181898180
:100AB0009A81880F991FAE014F5F5F4F840F951F7A
:100AC0000596FC0180819181FC0185819681A78139
:100AD000B0850196A11DB11DF90185839683A78379
:100AE000B08789819A8101969A83898329813A8185
:100AF0008B819C812817390708F45DCF0000809115
:100B00001E018823E1F310921E013BCFA1E21A2EB1
:100B1000AA1BBB1BFD010DC0AA1FBB1FEE1FFF1FA1
:100B2000A217B307E407F50720F0A21BB30BE40BF1
:100B3000F50B661F771F881F991F1A9469F7609538
:100B40007095809590959B01AC01BD01CF010895F2
:040B5000F894FFCF47
:100B54000000000200000000670000000000010027
:0E0B6400000001290134013F014A0155010042
:00000001FF
