:100000000C9446000C9465000C9465000C946500FB
:100010000C9465000C9465000C9465000C946500CC
:100020000C9465000C9465000C9465000C946500BC
:100030000C9465000C940C010C9465000C94650004
:100040000C9465000C9465000C9465000C9465009C
:100050000C9465000C9465000C9465000C9465008C
:100060000C9465000C9465000C9465000C9465007C
:100070000C9465000C9465000C9465000C9465006C
:100080000C9465000C9465000C94650011241FBE4F
:10009000CFEFD0E4DEBFCDBF11E0A0E0B1E0EAE2F7
:1000A000FDE000E00BBF02C007900D92AE31B1073A
:1000B000D9F721E0AEE1B1E001C01D92A437B2074B
:1000C000E1F70E94AE040C9493060C940000CF93C9
:1000D000DF9300D01F92CDB7DEB789837B836A831D
:1000E00089818A3031F48A819B81BC018DE00E9434
:1000F000670080EC90E0FC018081882F90E08072A6
:100100009927892BB1F386EC90E02981FC012083AB
:1001100080E090E00F900F900F90DF91CF910895C5
:10012000CF93DF9300D000D0CDB7DEB769837A8359
:100130008B839C8389819A81AB81BC8180930E01E2
:1001400090930F01A0931001B093110180910E01C3
:1001500090910F01A0911001B091110180931F01A6
:1001600090932001A0932101B093220100000F90F1
:100170000F900F900F90DF91CF910895CF93DF9361
:10018000CDB7DEB781E890E02BE0FC01208388E862
:1001900090E02DE730E0FC01318320838FE690E092
:1001A00022E0FC01208384E890E0FC0111821082AF
:1001B00080910E0190910F01A0911001B091110159
:1001C00080931F0190932001A0932101B0932201FD
:1001D0008FE590E02FE530E0F90120812068FC01F7
:1001E00020830000DF91CF910895CF93DF93CDB7A7
:1001F000DEB781E890E0FC0110820000DF91CF9132
:100200000895CF93DF93CDB7DEB781E080931E01D1
:100210000000DF91CF9108951F920F9200905F0030
:100220000F92112400905B000F922F933F934F93F6
:100230005F936F937F938F939F93AF93BF93EF934E
:10024000FF93CF93DF93CDB7DEB780911F019091DD
:100250002001A0912101B09122010197A109B109CA
:1002600080931F0190932001A0932101B09322015C
:1002700080911F0190912001A0912101B091220154
:10028000892B8A2B8B2B91F40E94010180910E0106
:1002900090910F01A0911001B091110180931F0165
:1002A00090932001A0932101B09322010000DF91DF
:1002B000CF91FF91EF91BF91AF919F918F917F91DE
:1002C0006F915F914F913F912F910F9000925B0042
:1002D0000F9000925F000F901F901895CF93DF93BF
:1002E000CDB7DEB72C970FB6F894DEBF0FBECDBFEB
:1002F0006D837E838F83988729873A874B875C87B6
:100300008D819E81AF81B88529853A854B855C8535
:10031000BC01CD010E947106DC01CB0189839A8367
:10032000AB83BC8389819A81AB81BC81892B8A2B69
:100330008B2B29F489859A85AB85BC8511C089856D
:100340009A85AB85BC858D839E83AF83B887898171
:100350009A81AB81BC8189879A87AB87BC87D0CFD4
:10036000BC01CD012C960FB6F894DEBF0FBECDBFF9
:10037000DF91CF910895CF93DF9300D000D01F92EB
:10038000CDB7DEB78B837D836C831A82198235C02B
:100390008C819D81019731F488E290E028E0FC0196
:1003A000208309C08C819D81029729F488E290E026
:1003B00020E1FC01208388E290E028E230E0F901AE
:1003C0002081422F2B81222F30E0098002C03595F9
:1003D00027950A94E2F72170242BFC01208388E200
:1003E00090E028E230E0F90120812260FC012083C6
:1003F00089819A8101969A83898389819A81089754
:100400003CF28C819D81019751F488E290E028E2D2
:1004100030E0F90120812460FC0120830DC08C8133
:100420009D81029749F488E290E028E230E0F901EA
:1004300020812062FC01208388E290E0FC01108290
:1004400000000F900F900F900F900F90DF91CF91C1
:100450000895CF93DF9300D0CDB7DEB79A83898319
:1004600089819A818230910509F444C083309105D5
:100470002CF4009759F0019759F193C083309105FE
:1004800009F44AC0049709F46CC08BC080916701DD
:10049000882329F082E090E09A83898385C0809147
:1004A0007101882329F081E090E09A8389837CC0E0
:1004B00080916701882349F080917101882329F098
:1004C00083E090E09A8389836FC01A8219826CC09E
:1004D00080911201833021F481E08093120105C0E4
:1004E000809112018F5F8093120184E090E09A83E3
:1004F00089835AC080911201813021F483E0809376
:10050000120105C08091120181508093120184E094
:1005100090E09A83898348C080912301882329F041
:1005200084E090E09A8389833FC0809125018823ED
:1005300039F481E08093250181E08093120109C0A4
:1005400080912501813029F481E08093120110927D
:10055000250181E08093230184E090E09A838983E0
:1005600023C080916701882349F480917101882319
:1005700029F41A8219821092230112C08091670116
:10058000882349F080917101882329F083E090E06D
:100590009A83898305C084E090E09A83898304C0AC
:1005A00003C01A821982000089819A810F900F90EE
:1005B000DF91CF910895CF93DF9300D0CDB7DEB711
:1005C0009A83898389819A81892B09F047C0809118
:1005D0001201813019F0109229011BC08091120183
:1005E0008130B9F480912501882399F08091290107
:1005F000882339F48FEF8093270181E080932901CC
:1006000008C080912901813021F4109227011092B5
:10061000290180911301813019F010922C011BC027
:10062000809113018130B9F480912601882399F0DB
:1006300080912C01882339F48FEF8093280181E089
:1006400080932C0108C080912C01813021F41092FC
:10065000280110922C011A82198203C01A82198271
:10066000000089819A810F900F90DF91CF910895BA
:10067000CF93DF9300D0CDB7DEB79A83898389818A
:100680009A81892B09F049C080911201823019F0BA
:1006900010922A011CC0809112018230C1F4809115
:1006A00025018823A1F080912A01882339F48AEA60
:1006B0008093270181E080932A0109C080912A015B
:1006C000813029F485E58093270110922A018091D9
:1006D0001301823019F010922D011CC0809113017A
:1006E0008230C1F4809126018823A1F080912D01F0
:1006F000882339F48AEA8093280181E080932D01D0
:1007000009C080912D01813029F485E5809328016D
:1007100010922D011A82198203C01A8219820000D8
:1007200089819A810F900F90DF91CF910895CF9397
:10073000DF9300D0CDB7DEB79A83898389819A8110
:10074000892B09F0C9C080911201833019F01092F1
:100750002B015CC080911201833009F057C0809159
:100760002501882309F452C080912B01882341F48C
:100770001092270180912B018F5F80932B0146C03F
:1007800080912B01813021F080912B01873081F401
:1007900080912B01873019F410922B0105C08091B4
:1007A0002B018F5F80932B0181E8809327012EC05E
:1007B00080912B01823021F080912B01863049F409
:1007C00083EC8093270180912B018F5F80932B0115
:1007D0001DC080912B01833021F080912B01853049
:1007E00049F487EE8093270180912B018F5F8093DE
:1007F0002B010CC080912B01843041F48FEF80934A
:10080000270180912B018F5F80932B018091130131
:10081000833019F010922E015CC080911301833057
:1008200009F057C080912601882309F452C08091B5
:100830002E01882341F41092280180912E018F5FB0
:1008400080932E0146C080912E01813021F080914D
:100850002E01873081F480912E01873019F4109297
:100860002E0105C080912E018F5F80932E0181E8BB
:10087000809328012EC080912E01823021F080913A
:100880002E01863049F483EC8093280180912E015B
:100890008F5F80932E011DC080912E01833021F047
:1008A00080912E01853049F487EE80932801809154
:1008B0002E018F5F80932E010CC080912E01843019
:1008C00041F48FEF8093280180912E018F5F8093F8
:1008D0002E011A82198203C01A82198200008981AE
:1008E0009A810F900F90DF91CF910895CF93DF936E
:1008F00000D0CDB7DEB79A83898389819A81892B0D
:1009000019F580912501882331F461E070E080E0E1
:100910000E94BB0106C08091270161E070E00E9447
:10092000BB0180912601882331F462E070E080E011
:100930000E94BB0106C08091280162E070E00E9425
:10094000BB011A82198203C01A82198200008981B0
:100950009A810F900F90DF91CF9108950F931F937D
:10096000CF93DF93CDB7DEB72F970FB6F894DEBFE6
:100970000FBECDBF87E290E02FEFFC01208388E21D
:1009800090E0FC01108281E290E0FC01108280E2A4
:1009900090E02FEFFC0120838AE0E4E1F1E0DE014A
:1009A000169601900D928A95E1F785E090E09C8380
:1009B0008B838FEF8D838D8180932F0182E390E075
:1009C000A0E0B0E08093300190933101A093320118
:1009D000B09333018091300190913101A0913201A7
:1009E000B09133018093340190933501A093360187
:1009F000B093370189E292E09093390180933801F6
:100A00008D8180933A0180E293E0A0E0B0E0809392
:100A10003B0190933C01A0933D01B0933E01809136
:100A20003B0190913C01A0913D01B0913E0180932A
:100A30003F0190934001A0934101B09342018BED9F
:100A400092E090934401809343018D81809345010E
:100A500084EF91E0A0E0B0E08093460190934701DD
:100A6000A0934801B09349018091460190914701BC
:100A7000A0914801B091490180934A0190934B01A4
:100A8000A0934C01B0934D0188E393E090934F0104
:100A900080934E018D818093500184E690E0A0E028
:100AA000B0E08093510190935201A0935301B09311
:100AB00054018091510190915201A0915301B09144
:100AC00054018093550190935601A0935701B09320
:100AD000580187E993E090935A01809359018D81E1
:100AE00080935B0181E090E0A0E0B0E080935C0146
:100AF00090935D01A0935E01B0935F0180915C01D2
:100B000090915D01A0915E01B0915F0180936001C1
:100B100090936101A0936201B093630186E794E032
:100B2000909365018093640161E070E080E090E063
:100B30000E9490000E94BE0080E290E0FC01808153
:100B4000882F90E08170992721E0892B09F020E01F
:100B5000822F8093670180E290E0FC018081809584
:100B600082708093710180E290E0FC018081809529
:100B7000847080936C0180E290E0FC01808180951C
:100B80008870809366011A8219829BC089819A813C
:100B9000880F991F9E012F5F3F4F820F931F05966D
:100BA000FC0180819181FC0125813681478150853E
:100BB00089819A81880F991FBE016F5F7F4F860FD1
:100BC000971F0596FC0180819181FC0181819281B2
:100BD000A381B481281739074A075B0709F045C08C
:100BE00089819A81880F991F9E012F5F3F4F820F45
:100BF000931F0596FC010081118189819A81880FDC
:100C0000991F9E012F5F3F4F820F931F0596FC0196
:100C100080819181FC012185328589819A81880FAB
:100C2000991FAE014F5F5F4F840F951F0596FC0122
:100C300080819181FC018081082E000C990BF901C3
:100C40000995F801808389819A81880F991F9E01F7
:100C50002F5F3F4F820F931F0596FC01808191818A
:100C6000FC01158216821782108689819A81880F6D
:100C7000991F9E012F5F3F4F820F931F0596FC0126
:100C80002081318189819A81880F991FAE014F5F40
:100C90005F4F840F951F0596FC0180819181FC01B7
:100CA00085819681A781B0850196A11DB11DF901AD
:100CB00085839683A783B08789819A8101969A83D9
:100CC000898329813A818B819C812817390708F40F
:100CD0005DCF000080911E018823E1F310921E0178
:100CE0002BCFA1E21A2EAA1BBB1BFD010DC0AA1F10
:100CF000BB1FEE1FFF1FA217B307E407F50720F085
:100D0000A21BB30BE40BF50B661F771F881F991FFF
:100D10001A9469F760957095809590959B01AC0148
:0A0D2000BD01CF010895F894FFCF44
:100D2A00000000020000000067000000000001004F
:0E0D3A00000001012F013A01450150015B014B
:00000001FF
