:100000000C9446000C9465000C9465000C946500FB
:100010000C9465000C9465000C9465000C946500CC
:100020000C9465000C9465000C9465000C946500BC
:100030000C9465000C940C010C9465000C94650004
:100040000C9465000C9465000C9465000C9465009C
:100050000C9465000C9465000C9465000C9465008C
:100060000C9465000C9465000C9465000C9465007C
:100070000C9465000C9465000C9465000C9465006C
:100080000C9465000C9465000C94650011241FBE4F
:10009000CFEFD0E4DEBFCDBF11E0A0E0B1E0E8EDEE
:1000A000FEE000E00BBF02C007900D92A032B10746
:1000B000D9F721E0A0E2B1E001C01D92A338B20758
:1000C000E1F70E9460050C946A070C940000CF933E
:1000D000DF9300D01F92CDB7DEB789837B836A831D
:1000E00089818A3031F48A819B81BC018DE00E9434
:1000F000670080EC90E0FC018081882F90E08072A6
:100100009927892BB1F386EC90E02981FC012083AB
:1001100080E090E00F900F900F90DF91CF910895C5
:10012000CF93DF9300D000D0CDB7DEB769837A8359
:100130008B839C8389819A81AB81BC8180930E01E2
:1001400090930F01A0931001B093110180910E01C3
:1001500090910F01A0911001B091110180932101A4
:1001600090932201A0932301B093240100000F90EB
:100170000F900F900F90DF91CF910895CF93DF9361
:10018000CDB7DEB781E890E02BE0FC01208388E862
:1001900090E02DE730E0FC01318320838FE690E092
:1001A00022E0FC01208384E890E0FC0111821082AF
:1001B00080910E0190910F01A0911001B091110159
:1001C0008093210190932201A0932301B0932401F5
:1001D0008FE590E02FE530E0F90120812068FC01F7
:1001E00020830000DF91CF910895CF93DF93CDB7A7
:1001F000DEB781E890E0FC0110820000DF91CF9132
:100200000895CF93DF93CDB7DEB781E080932001CF
:100210000000DF91CF9108951F920F9200905F0030
:100220000F92112400905B000F922F933F934F93F6
:100230005F936F937F938F939F93AF93BF93EF934E
:10024000FF93CF93DF93CDB7DEB7809121019091DB
:100250002201A0912301B09124010197A109B109C4
:100260008093210190932201A0932301B093240154
:100270008091210190912201A0912301B09124014C
:10028000892B8A2B8B2B91F40E94010180910E0106
:1002900090910F01A0911001B09111018093210163
:1002A00090932201A0932301B09324010000DF91D9
:1002B000CF91FF91EF91BF91AF919F918F917F91DE
:1002C0006F915F914F913F912F910F9000925B0042
:1002D0000F9000925F000F901F901895CF93DF93BF
:1002E000CDB7DEB72C970FB6F894DEBF0FBECDBFEB
:1002F0006D837E838F83988729873A874B875C87B6
:100300008D819E81AF81B88529853A854B855C8535
:10031000BC01CD010E944807DC01CB0189839A838F
:10032000AB83BC8389819A81AB81BC81892B8A2B69
:100330008B2B29F489859A85AB85BC8511C089856D
:100340009A85AB85BC858D839E83AF83B887898171
:100350009A81AB81BC8189879A87AB87BC87D0CFD4
:10036000BC01CD012C960FB6F894DEBF0FBECDBFF9
:10037000DF91CF910895CF93DF9300D000D01F92EB
:10038000CDB7DEB78B837D836C831A82198235C02B
:100390008C819D81019731F488E290E028E0FC0196
:1003A000208309C08C819D81029729F488E290E026
:1003B00020E1FC01208388E290E028E230E0F901AE
:1003C0002081422F2B81222F30E0098002C03595F9
:1003D00027950A94E2F72170242BFC01208388E200
:1003E00090E028E230E0F90120812260FC012083C6
:1003F00089819A8101969A83898389819A81089754
:100400003CF28C819D81019751F488E290E028E2D2
:1004100030E0F90120812460FC0120830DC08C8133
:100420009D81029749F488E290E028E230E0F901EA
:1004300020812062FC01208388E290E0FC01108290
:1004400000000F900F900F900F900F90DF91CF91C1
:100450000895CF93DF9300D0CDB7DEB79A83898319
:1004600089819A818230910509F444C083309105D5
:100470002CF4009759F0019759F193C083309105FE
:1004800009F44AC0049709F46CC08BC080917401D0
:10049000882329F082E090E09A83898385C0809147
:1004A0008001882329F081E090E09A8389837CC0D1
:1004B00080917401882349F080918001882329F07C
:1004C00083E090E09A8389836FC01A8219826CC09E
:1004D00080911201833021F481E08093120105C0E4
:1004E000809112018F5F8093120184E090E09A83E3
:1004F00089835AC080911201813021F483E0809376
:10050000120105C08091120181508093120184E094
:1005100090E09A83898348C080912501882329F03F
:1005200084E090E09A8389833FC0809127018823EB
:1005300039F481E08093270181E08093120109C0A2
:1005400080912701813029F481E08093120110927B
:10055000270181E08093250184E090E09A838983DC
:1005600023C080917401882349F4809180018823FD
:1005700029F41A8219821092250112C08091740107
:10058000882349F080918001882329F083E090E05E
:100590009A83898305C084E090E09A83898304C0AC
:1005A00003C01A821982000089819A810F900F90EE
:1005B000DF91CF910895CF93DF9300D0CDB7DEB711
:1005C0009A83898389819A818230910509F444C094
:1005D000833091052CF4009759F0019759F193C09D
:1005E0008330910509F44AC0049709F46CC08BC0AC
:1005F00080917B01882329F082E090E09A838983AF
:1006000085C080917301882329F081E090E09A836E
:1006100089837CC080917B01882349F0809173019C
:10062000882329F083E090E09A8389836FC01A823F
:1006300019826CC080911301833021F481E0809392
:10064000130105C0809113018F5F8093130184E033
:1006500090E09A8389835AC080911301813021F4FC
:1006600083E08093130105C0809113018150809332
:10067000130184E090E09A83898348C08091260129
:10068000882329F084E090E09A8389833FC0809199
:100690002801882339F481E08093280181E0809348
:1006A000130109C080912801813029F481E08093F1
:1006B00013011092280181E08093260184E090E0EC
:1006C0009A83898323C080917B01882349F4809198
:1006D0007301882329F41A8219821092260112C00C
:1006E00080917B01882349F080917301882329F050
:1006F00083E090E09A83898305C084E090E09A8348
:10070000898304C003C01A821982000089819A81FA
:100710000F900F90DF91CF910895CF93DF9300D08A
:10072000CDB7DEB79A83898389819A81892B09F0B5
:1007300047C080911201813019F010922B011BC02B
:10074000809112018130B9F480912701882399F0BA
:1007500080912B01882339F48FEF8093290181E068
:1007600080932B0108C080912B01813021F41092DD
:10077000290110922B0180911301813019F0109200
:100780002E011BC0809113018130B9F480912801A2
:10079000882399F080912E01882339F48FEF80937C
:1007A0002A0181E080932E0108C080912E018130C2
:1007B00021F410922A0110922E011A82198203C08C
:1007C0001A821982000089819A810F900F90DF911F
:1007D000CF910895CF93DF9300D0CDB7DEB79A8342
:1007E000898389819A81892B09F049C080911201FE
:1007F000823019F010922C011CC0809112018230BD
:10080000C1F4809127018823A1F080912C018823D5
:1008100039F48AEA8093290181E080932C0109C090
:1008200080912C01813029F485E580932901109273
:100830002C0180911301823019F010922F011CC0FD
:10084000809113018230C1F4809128018823A1F0A6
:1008500080912F01882339F48AEA80932A0181E06C
:1008600080932F0109C080912F01813029F485E503
:1008700080932A0110922F011A82198203C01A82D2
:100880001982000089819A810F900F90DF91CF919A
:100890000895CF93DF9300D0CDB7DEB79A838983D5
:1008A00089819A81892B09F0C9C080911201833016
:1008B00019F010922D015CC080911201833009F073
:1008C00057C080912701882309F452C080912D01DF
:1008D000882341F41092290180912D018F5F80932C
:1008E0002D0146C080912D01813021F080912D0194
:1008F000873081F480912D01873019F410922D01F9
:1009000005C080912D018F5F80932D0181E8809338
:1009100029012EC080912D01823021F080912D017E
:10092000863049F483EC8093290180912D018F5FFB
:1009300080932D011DC080912D01833021F0809185
:100940002D01853049F487EE8093290180912D0196
:100950008F5F80932D010CC080912D01843041F474
:100960008FEF8093290180912D018F5F80932D015E
:1009700080911301833019F0109230015CC0809196
:100980001301833009F057C080912801882309F4AE
:1009900052C080913001882341F410922A01809145
:1009A00030018F5F8093300146C0809130018130EB
:1009B00021F080913001873081F4809130018730BF
:1009C00019F41092300105C0809130018F5F80933F
:1009D000300181E880932A012EC08091300182305D
:1009E00021F080913001863049F483EC80932A0114
:1009F000809130018F5F809330011DC08091300164
:100A0000833021F080913001853049F487EE809366
:100A10002A01809130018F5F809330010CC080915A
:100A20003001843041F48FEF80932A0180913001AE
:100A30008F5F809330011A82198203C01A82198253
:100A4000000089819A810F900F90DF91CF910895D6
:100A5000CF93DF9300D0CDB7DEB79A8389838981A6
:100A60009A81892B19F580912701882331F461E05F
:100A700070E080E00E94BB0106C08091290161E026
:100A800070E00E94BB0180912801882331F462E06C
:100A900070E080E00E94BB0106C080912A0162E004
:100AA00070E00E94BB011A82198203C01A82198267
:100AB000000089819A810F900F90DF91CF91089566
:100AC0000F931F93CF93DF93CDB7DEB761970FB628
:100AD000F894DEBF0FBECDBF87E290E02FEFFC01A0
:100AE000208388E290E0FC01108281E290E0FC012A
:100AF000108280E290E02FEFFC0120838CE0E4E1A3
:100B0000F1E0DE01169601900D928A95E1F786E0FC
:100B100090E09C838B838FEF8D838D818093310157
:100B200082E390E0A0E0B0E0809332019093330143
:100B3000A0933401B093350180913201909133013B
:100B4000A0913401B0913501809336019093370123
:100B5000A0933801B093390189E292E090933B0170
:100B600080933A018D8180933C0180E293E0A0E084
:100B7000B0E080933D0190933E01A0933F01B0937C
:100B8000400180913D0190913E01A0913F01B091C3
:100B900040018093410190934201A0934301B0939F
:100BA00044018DE893E090934601809345018D8147
:100BB0008093470184EF91E0A0E0B0E0809348018A
:100BC00090934901A0934A01B0934B018091480151
:100BD00090914901A0914A01B0914B0180934C0141
:100BE00090934D01A0934E01B0934F018AEE93E094
:100BF00090935101809350018D818093520184E63E
:100C000090E0A0E0B0E08093530190935401A09352
:100C10005501B09356018091530190915401A091D8
:100C20005501B09156018093570190935801A093BC
:100C30005901B0935A0189E494E090935C01809348
:100C40005B018D8180935D0181E090E0A0E0B0E0E8
:100C500080935E0190935F01A0936001B093610166
:100C600080915E0190915F01A0916001B09161015E
:100C70008093620190936301A0936401B093650136
:100C800088E295E090936701809366018D8180935F
:100C9000680182E390E0A0E0B0E080936901909366
:100CA0006A01A0936B01B0936C01809169019091EE
:100CB0006A01A0916B01B0916C0180936D019093DA
:100CC0006E01A0936F01B09370018BED92E0909351
:100CD00072018093710161E070E080E090E00E9419
:100CE00090000E94BE0080E290E0FC018081882F8D
:100CF00090E08170992721E0892B09F020E0822F74
:100D00008093740180E290E0FC0180818095827084
:100D10008093800180E290E0FC0180818095847066
:100D200080937B0180E290E0FC0180818095887057
:100D3000809373011A8219829BC089819A81880FDE
:100D4000991F9E012F5F3F4F820F931F0596FC0155
:100D500080819181FC01258136814781508589817F
:100D60009A81880F991FBE016F5F7F4F860F971F73
:100D70000596FC0180819181FC0181819281A38192
:100D8000B481281739074A075B0709F045C08981F4
:100D90009A81880F991F9E012F5F3F4F820F931FEB
:100DA0000596FC010081118189819A81880F991F24
:100DB0009E012F5F3F4F820F931F0596FC0180819C
:100DC0009181FC012185328589819A81880F991F43
:100DD000AE014F5F5F4F840F951F0596FC01808128
:100DE0009181FC018081082E000C990BF901099575
:100DF000F801808389819A81880F991F9E012F5F56
:100E00003F4F820F931F0596FC0180819181FC0169
:100E1000158216821782108689819A81880F991F00
:100E20009E012F5F3F4F820F931F0596FC0120818B
:100E3000318189819A81880F991FAE014F5F5F4F81
:100E4000840F951F0596FC0180819181FC018581AD
:100E50009681A781B0850196A11DB11DF9018583F9
:100E60009683A783B08789819A8101969A83898323
:100E700029813A818B819C812817390708F45DCF3D
:100E80000000809120018823E1F3109220012BCFF4
:100E9000A1E21A2EAA1BBB1BFD010DC0AA1FBB1F7E
:100EA000EE1FFF1FA217B307E407F50720F0A21BF0
:100EB000B30BE40BF50B661F771F881F991F1A945D
:100EC00069F760957095809590959B01AC01BD0187
:080ED000CF010895F894FFCF53
:100ED80000000002000000006700000000000100A0
:100EE8000000010131013C01470152015D01680127
:00000001FF
